:100000000C94AC000C94D4000C94D4000C948A0989
:100010000C94AE090C94D2090C94D4000C94D40026
:100020000C94D4000C94D4000C94D4000C94D40000
:100030000C94D4000C94D4000C94D4000C94D400F0
:100040000C949E010C94D4000C943F030C94700308
:100050000C94D4000C94D4000C94D4000C94D400D0
:100060000C94D4000C94D40000C2010001001100D3
:1000700011000C0000E100000A002500250021000D
:10008000009600001900390039003600127A00008D
:100090001F004600460044008070000022004D0012
:1000A0004D004A00004B00003600750075007200DC
:1000B000403800004A009C009C0099008025000008
:1000C0007200EC00EC00E900C0120000E900DA0167
:1000D000DA01D70160090000D701B603B603B30304
:1000E000B0040000B3036E076E076B072C0100001D
:1000F000DC0EC11DC11DBE1D000000002400270034
:100100002A0000000000250028002B00000000004D
:100110002300260029000404040404040404020249
:100120000202020203030303030301020408102076
:100130004080010204081020010204081020000081
:100140000007000201000003040600000000000098
:1001500000009401CB04990111241FBECFEFD8E019
:10016000DEBFCDBF11E0A0E0B1E0E6E5F4E302C000
:1001700005900D92A235B107D9F712E0A2E5B1E0E2
:1001800001C01D92A937B107E1F711E0C6E5D1E042
:1001900004C02297FE010E947616C235D107C9F726
:1001A0000E9485010C941E1A0C9400008130910568
:1001B00041F482E591E06DE04CE020E00E94440AC9
:1001C0000895009721F482E591E00E94470B08957D
:1001D000CF93DF9382E591E040E056E960E070E084
:1001E0000E94710AC1E1D2E0CE0140E855E260E030
:1001F00070E00E94F603CE016AE07AE04AE050E047
:100200000E942B07DF91CF9108951F9380917F016A
:100210008823C1F581E01FC068EE73E080E090E0C4
:100220000E941A0282E591E062E77FE24AE050E034
:100230000E942B0768EE73E080E090E00E941A02B3
:1002400082E591E062E77FE24AE050E00E942B07FE
:1002500080917E018F5F80937E0180917E0183304B
:10026000D8F281E080937F0168EE73E080E090E057
:100270000E941A0282E591E062E77FE24AE050E0E4
:100280000E942B0782E591E00E943D088430910591
:10029000CCF182E591E00E943D0880937D0181E0F0
:1002A0000CC082E591E00E941C08E12FF0E0E259C9
:1002B000FE4F808380917E018F5F80937E0110913D
:1002C0007E0180917D01811760F781E00BC0F0E035
:1002D000E259FE4F81E192E060810E949C0580918D
:1002E0007E018F5F80937E01E0917E0180917D0190
:1002F0008E1768F781E192E062E77FE24AE050E022
:100300000E9435071F910895FFCFCF93DF930E947E
:100310004B020E94E800C7E6D3E00E940501209747
:10032000E1F30E946703F9CF81E090E00E94D600DC
:10033000089580E090E00E94D60008951F920F92E9
:100340000FB60F9211242F933F938F939F93AF93E8
:10035000BF938091840190918501A0918601B09115
:100360008701309188010196A11DB11D232F2D5FBA
:100370002D3720F02D570196A11DB11D2093880126
:100380008093840190938501A0938601B0938701A7
:100390008091800190918101A0918201B0918301AF
:1003A0000196A11DB11D8093800190938101A093BE
:1003B0008201B0938301BF91AF919F918F913F9143
:1003C0002F910F900FBE0F901F9018958FB7F89434
:1003D00020918401309185014091860150918701DF
:1003E0008FBFB901CA0108959FB7F8942091800189
:1003F00030918101409182015091830186B5A89B83
:1004000006C08F3F21F02F5F3F4F4F4F5F4F9FBF81
:10041000542F432F322F2227280F311D411D511DEC
:1004200082E0220F331F441F551F8A95D1F7B9016F
:10043000CA010895EF92FF920F931F93CF93DF931A
:100440007B018C010E94F401EB010FC00E94F401BA
:100450006C1B7D0B83E0683E780738F00894E10858
:10046000F10801091109C851DC4FE114F10401053B
:10047000110561F7DF91CF911F910F91FF90EF90E0
:100480000895019739F0880F991F880F991F0297D7
:100490000197F1F70895789484B5826084BD84B59E
:1004A000816084BD85B5826085BD85B5816085BD6F
:1004B000EEE6F0E0808181608083E1E8F0E0108288
:1004C000808182608083808181608083E0E8F0E0C9
:1004D000808181608083E1EBF0E0808184608083B3
:1004E000E0EBF0E0808181608083EAE7F0E08081EA
:1004F000846080838081826080838081816080834A
:100500008081806880831092C1000895FC018485F9
:100510009585FC01E05CFF4F208131818E5B9F4F10
:10052000FC0180819181281B390B2F733070C90128
:100530000895FC0184859585FC01E05CFF4F4081B6
:100540005181FC01EE5BFF4F20813181421753073F
:1005500041F00190F081E02DE80FF91F208130E09B
:1005600002C02FEF3FEFC9010895FC0184859585F6
:10057000FC01E05CFF4F40815181FC01EE5BFF4FCD
:10058000208131814217530771F0A081B181A80FFA
:10059000B91F2C918081918101968F739070918306
:1005A000808330E002C02FEF3FEFC9010895DC01E6
:1005B0001E968D919C911F97FC01E05CFF4F8E5B16
:1005C0009F4F40815181DC012D913C911197421741
:1005D0005307B9F708951F93FC01162F2685378519
:1005E000D901A05CBF4F8D919C91019660E470E0B1
:1005F0000E942B16D901AE5BBF4F4D915C911197B4
:1006000084179507D1F3D901A05CBF4F0D90BC9121
:10061000A02DA20FB31F1C93A685B785A05CBF4F6A
:1006200011969C938E93A689B7892C9181E090E0D6
:10063000058C02C0880F991F0A94E2F7282B2C938F
:1006400081E090E01F910895FB01E05CFF4F208165
:1006500031812F5F3F4F2F733070DB01AE5BBF4F97
:100660004D915C9111972417350739F0A081B18124
:10067000A60FB71F8C9331832083089508951F928E
:100680000F920FB60F9211242F933F934F935F93C6
:100690006F937F938F939F93AF93BF93EF93FF934A
:1006A0008091C60069E871E00E942403FF91EF91F8
:1006B000BF91AF919F918F917F916F915F914F917A
:1006C0003F912F910F900FBE0F901F90189581E1D1
:1006D00092E00E948602009711F00E943E03089566
:1006E0001F920F920FB60F9211242F933F935F9397
:1006F0006F937F938F939F93AF93BF93EF93FF93EA
:1007000020910D0230910E0280910F029091100203
:100710002817390731F48091C1008F7D8093C10083
:1007200016C0E0910F02F0911002E353FE4F2081BA
:1007300080910F0290911002019660E470E00E9497
:100740002B169093100280930F022093C600FF9106
:10075000EF91BF91AF919F918F917F916F915F9139
:100760003F912F910F900FBE0F901F9018958F9271
:10077000AF92BF92CF92DF92EF92FF920F931F93AF
:10078000DF93CF93CDB7DEB7FC011382128288EEE0
:1007900093E0A0E0B0E084839583A683B78384E0F0
:1007A00091E0918380837587648757874687318B73
:1007B000208B138B028BF58AE48AD78AC68AB18E86
:1007C000A08E828E8E85838F8F85848F8889858F7A
:1007D0008989868FCF91DF911F910F91FF90EF90C4
:1007E000DF90CF90BF90AF908F900895DF92EF92FF
:1007F000FF920F931F93CF93DF93EC017A018B014C
:10080000DD24D394403081EE580780E0680780E013
:10081000780749F4DD24EC89FD89108260E874E8EA
:100820008EE190E00FC0EC89FD8981E090E00E8CB4
:1008300002C0880F991F0A94E2F7808360E079E094
:100840008DE390E0A80197010E943E1621503040B0
:1008500040405040569547953795279580E1203088
:10086000380710F0DD20B1F6E889F9893083EA898C
:10087000FB892083EE89FF89408181E090E09C0123
:100880000A8C02C0220F331F0A94E2F7422B4083E6
:10089000EE89FF8940819C010B8C02C0220F331F1F
:1008A0000A94E2F7422B4083EE89FF8940819C0144
:1008B0000C8C02C0220F331F0A94E2F7422B4083B4
:1008C000EE89FF8920810D8C02C0880F991F0A9440
:1008D000E2F7809582238083DF91CF911F910F9162
:1008E000FF90EF90DF900895CF93DF93FC01868512
:1008F0009785DC01A05CBF4F8E5B9F4F4D915C9153
:100900001197EC012881398142175307B9F7A6895D
:10091000B7894C9181E090E09C01028C02C0220FCB
:10092000331F0A94E2F7209524232C93A689B789D4
:100930004C919C01038C02C0220F331F0A94E2F7F2
:10094000209524232C93A689B7894C919C01048C73
:1009500002C0220F331F0A94E2F7209524232C9320
:10096000A689B7892C91058C02C0880F991F0A941B
:10097000E2F7809582238C9384859585FC01EE5B5C
:10098000FF4F20813181805C9F4FFC0131832083A8
:10099000DF91CF910895109214021092130288EE05
:1009A00093E0A0E0B0E08093150290931602A0932C
:1009B0001702B0931802E3E1F2E084E091E0929331
:1009C000829389E891E0958784878DEC91E0978701
:1009D000868785EC90E0918B808B84EC90E0938B04
:1009E000828B80EC90E0958B848B81EC90E0978BF0
:1009F000868B86EC90E0918F808F84E0828F83E0FD
:100A0000838F87E0848F85E0858F81E0868F0895CE
:100A1000CF92DF92EF92FF920F931F93CF93DF93CA
:100A20006C017B018A01C0E0D0E00FC0D7016D915D
:100A30007D01D601ED91FC910190F081E02DC60180
:100A40000995C80FD91F015010400115110571F704
:100A5000CE01DF91CF911F910F91FF90EF90DF902A
:100A6000CF900895DB010D900020E9F7AD014150D2
:100A70005040461B570BDC01ED91FC910280F38145
:100A8000E02D09950895EF92FF920F931F93CF9356
:100A9000DF937C01062F172FC0E0D0E0F8010F5F35
:100AA0001F4F6491662351F0F701A081B181ED9150
:100AB000FC91C7010995C80FD91FF0CFCE01DF9176
:100AC000CF911F910F91FF90EF900895AF92BF9239
:100AD000CF92DF92EF92FF920F931F93CF93DF930A
:100AE0007C016B01C0E0D0E000E010E010C0D70155
:100AF000ED91FC91A080B180C601BE010E94E6107C
:100B0000682FC701F5010995080F191F2196F601F5
:100B100084819581C817D90750F3C801DF91CF911F
:100B20001F910F91FF90EF90DF90CF90BF90AF900B
:100B300008950E9432050895DC01ED91FC91019029
:100B4000F081E02D099508959C01CB01DB01ED9129
:100B5000FC910190F081E02DB901099508950F9362
:100B60001F93CF93DF93EC016DE00E949C058C01F5
:100B7000CE016AE00E949C05080F191FC801DF9191
:100B8000CF911F910F9108950F931F93CF93DF93F0
:100B9000EC010E9443058C01CE010E94AF05080FB5
:100BA000191FC801DF91CF911F910F9108950F93E5
:100BB0001F93CF93DF93EC010E9466058C01CE0159
:100BC0000E94AF05080F191FC801DF91CF911F9137
:100BD0000F9108950F931F93CF93DF93EC010E9421
:100BE00032058C01CE010E94AF05080F191FC80104
:100BF000DF91CF911F910F9108950F931F93CF9382
:100C0000DF93EC010E949C058C01CE010E94AF0590
:100C1000080F191FC801DF91CF911F910F910895FF
:100C20000F931F93CF93DF93EC010E94A4058C01D7
:100C3000CE010E94AF05080F191FC801DF91CF91A7
:100C40001F910F9108958F929F92AF92BF92CF9272
:100C5000DF92EF92FF920F931F93DF93CF93CDB765
:100C6000DEB7A1970FB6F894DEBF0FBECDBF6C0103
:100C7000042FE52FCB01122F19A2223008F41AE01D
:100C800021E2E22EF12CEC0EFD1E812E9924AA24E5
:100C9000BB2403C0022FE32FCA01602F7E2FA501C2
:100CA00094010E943E16129F802D1124081B089467
:100CB000E108F1080A3014F4005D01C0095CF70195
:100CC0000083211531054105510521F7C601B70102
:100CD0000E943205A1960FB6F894DEBF0FBECDBFBD
:100CE000CF91DF911F910F91FF90EF90DF90CF9008
:100CF000BF90AF909F908F9008952115310549F4D2
:100D0000DC01ED91FC910190F081E02D642F0995BB
:100D100008950E94230608950F931F93CF93DF93A6
:100D2000EC010E947D068C01CE010E94AF05080FE8
:100D3000191FC801DF91CF911F910F9108959A015A
:100D4000AB0160E070E00E947D0608950F931F9351
:100D5000CF93DF93EC019A01AB0160E070E00E9459
:100D60007D068C01CE010E94AF05080F191FC80136
:100D7000DF91CF911F910F9108959A01462F50E076
:100D800060E070E00E947D0608950F931F93CF935B
:100D9000DF93EC019A01462F50E060E070E00E9482
:100DA0007D068C01CE010E94AF05080F191FC801F6
:100DB000DF91CF911F910F910895CF92DF92EF9223
:100DC000FF920F931F93CF93DF93EC017A018B0176
:100DD0002115310541F4E881F9810190F081E02D80
:100DE000642F09951AC02A303105A9F477FF12C083
:100DF0006DE20E949C056C0144275527BA014E19EB
:100E00005F09600B710BCE012AE00E942306C80E19
:100E1000D91E04C02AE00E9423066C01C601DF919E
:100E2000CF911F910F91FF90EF90DF90CF90089599
:100E30000F931F93CF93DF93EC010E94DD068C018B
:100E4000CE010E94AF05080F191FC801DF91CF9195
:100E50001F910F9108959A01FB01AF01662757FD7D
:100E60006095762F0E94DD0608950F931F93CF9310
:100E7000DF93EC019A01CB01AC01662757FD609529
:100E8000762FCE010E94DD068C01CE010E94AF05B7
:100E9000080F191FC801DF91CF911F910F9108957D
:100EA0006F927F929F92AF92BF92CF92DF92EF921A
:100EB000FF920F931F93CF93DF933C017A018B0135
:100EC000C22ECB01BA0120E030E0A9010E947914C2
:100ED00087FF0AC0C3016DE20E949C05EC0117FB6D
:100EE000109517F9109502C0C0E0D0E0DD2450E065
:100EF00040E030E02FE311C0DA01F9016B2F742FCD
:100F00008F2F922F20E030E040E251E40E947D14C8
:100F1000562F472F382F292FD394DC1468F3C8019C
:100F2000B701DA01F9012B2F342F4F2F5E2F0E94CA
:100F300015145B01F82E992E7B2D0E94EA14162FB2
:100F4000D72EE82E092F0E9416159B01AC016A2DA1
:100F50007B2D8F2D992D0E941414962EA72EB82E1E
:100F6000F92EC301412F5D2D6E2D702F2AE030E048
:100F70000E947D06C80FD91FCC20B9F1C30160E2E1
:100F800071E00E943205C80FD91F2FC0692D7A2D3C
:100F90008B2D9F2D20E030E040E251E40E94C815E7
:100FA000D62EB72EA82E992E0E94E5147B0100277D
:100FB000F7FC0095102FC301B801A7012AE030E02B
:100FC0000E94DD06C80FD91FC801B7010E9418157D
:100FD0009B01AC016D2D7B2D8A2D992D0E9414143F
:100FE000962EA72EB82EF92ECA94CC2079F6CE01D3
:100FF000DF91CF911F910F91FF90EF90DF90CF90F5
:10100000BF90AF909F907F906F9008950E9450077F
:1010100008950F931F93CF93DF93EC010E94500725
:101020008C01CE010E94AF05080F191FC801DF9186
:10103000CF911F910F91089520913002309131028C
:1010400028173907B1F490917302809172029817B2
:1010500081F0E0917302F0E0EE5CFD4F2081809121
:10106000730290E001968F7390708093730230E06A
:1010700002C02FEF3FEFC901089520913002309157
:1010800031022817390779F4809172022091730296
:1010900090E0805C9F4F821B910960E470E00E94A9
:1010A0002B169C0102C020E030E0C9010895209178
:1010B0003002309131022817390749F48FB7F8947C
:1010C0001092720290917202909373028FBF0895F2
:1010D00020913002309131022817390781F4909124
:1010E000730280917202981751F0E0917302F0E060
:1010F000EE5CFD4F2081332727FD309502C02FEF96
:101100003FEFC901089520E001972FEF8F3F92072D
:10111000D9F70895FC0180913002909131028E1729
:101120009F0791F0838D8E7F838F8FB7F8941092F5
:1011300072029091720290937302F0933102E093E5
:1011400030028FBF81E0089580E00895EF92FF9212
:101150000F931F93CF93DF93EC018B8DEE85FF856B
:101160009D8581FF04C08081892329F445C0808149
:10117000892309F041C08B899C890E94830808E07B
:1011800010E0EE24E394FF248D899E890E94830859
:10119000EE85FF8580819D85892311F0FE2803C09F
:1011A0008E2D8095F822EE0C0150104069F78F8942
:1011B000988D0E9483088B8D81FDF094809172023E
:1011C0002091730290E001968F73907030E0821747
:1011D000930779F0E0917202F0E0EE5CFD4FF0824F
:1011E0008091720290E001968F73907080937202EA
:1011F00003C08B8D81608B8FDF91CF911F910F91F9
:10120000FF90EF900895FC01A189B289908966232F
:1012100029F42C91892F8095822302C08C91892BEF
:101220008C930895DF92EF92FF920F931F93CF93C9
:10123000DF93EC01E62E898D9A8D009739F481E0D9
:1012400090E09B838A8320E030E04BC0DFB6F894C7
:101250008B8D61E081FF60E0CE010E940309898DE2
:101260009A8D05960E9483088B8D81FF19C008E036
:1012700010E0FF24F3948F2D8E2119F0CE0160E051
:1012800002C0CE0161E00E940309898D9A8D0E94FF
:101290008308FF0C0150104071F7CE0160E018C0C8
:1012A00008E010E0FF24F3948F2D8E2119F0CE0179
:1012B00061E002C0CE0160E00E940309898D9A8D31
:1012C0000E948308FF0C0150104071F7CE0161E0CD
:1012D0000E940309DFBE898D9A8D0E94830821E058
:1012E00030E0C901DF91CF911F910F91FF90EF90F6
:1012F000DF900895FC01A685B7859C91858589239B
:1013000008958091300290913102009711F00E946F
:10131000A60808951F920F920FB60F9211242F93D3
:101320003F934F935F936F937F938F939F93AF936D
:10133000BF93EF93FF930E948109FF91EF91BF91BB
:10134000AF919F918F917F916F915F914F913F915D
:101350002F910F900FBE0F901F9018951F920F9214
:101360000FB60F9211242F933F934F935F936F9378
:101370007F938F939F93AF93BF93EF93FF930E94BD
:101380008109FF91EF91BF91AF919F918F917F91D3
:101390006F915F914F913F912F910F900FBE0F90E2
:1013A0001F9018951F920F920FB60F9211242F9332
:1013B0003F934F935F936F937F938F939F93AF93DD
:1013C000BF93EF93FF930E948109FF91EF91BF912B
:1013D000AF919F918F917F916F915F914F913F91CD
:1013E0002F910F900FBE0F901F9018951F93CF93C2
:1013F000DF93EC01162F862F61E00E947C0B812F7A
:1014000061E00E94A00B812F90E0FC01E65DFE4FA1
:10141000E491E88BFC01EA5EFE4FE491F0E0EE0F10
:10142000FF1FEE5FFE4F85919491898B9A8BDF9120
:10143000CF911F9108951F93CF93DF93EC01162F47
:10144000862F60E00E947C0B8B8D81FD04C0812F74
:1014500061E00E94A00B1C87812F90E0FC01E65DFB
:10146000FE4FE491ED87FC01EA5EFE4FE491F0E06F
:10147000EE0FFF1FE45FFE4F859194918E879F874B
:10148000DF91CF911F9108951F93CF93DF93EC01CC
:10149000162F1B821A8288EE93E0A0E0B0E08C83C6
:1014A0009D83AE83BF838EE291E0998388831C8AFB
:1014B0001B8A1E8A1D8A188E1F8A1A8E198E8B8D82
:1014C0002170220F8C7F822B8B8FCE01642F0E9484
:1014D000F609CE01612F0E941B0ADF91CF911F9167
:1014E0000895EF92FF920F931F93CF93DF93EC0138
:1014F0007A018B011A8E198E188E1F8A1E8A1D8AF8
:101500001C8A1B8A40E050E09A01220F331F240FEF
:10151000351F220F331F220F331FF901E859FF4FE8
:1015200085919591A591B4918E159F05A007B1075E
:10153000E9F4F901E459FF4F859194918B8B9C8BD1
:10154000F901E259FF4F859194918D8B9E8BF901A2
:10155000E059FF4F859194918F8B988F2E583F4F74
:10156000F90185919491898F9A8F06C04F5F5F4FE3
:101570004C30510509F0C8CF8F89988D009709F438
:1015800048C09C85963108F040C020916800983092
:1015900020F09E3020F082E003C084E001C081E0B2
:1015A000822B809368004C85483048F04E3060F0C4
:1015B0004631C8F1A0E0B0E0E0E0F0E009C0ADE6FF
:1015C000B0E0EDE6F0E004C0ABE6B0E0EBE6F0E062
:1015D0005081483040F481E090E002C0880F991FAC
:1015E0004A95E2F710C0242F30E04E3018F428500E
:1015F000304002C02E50304081E090E002C0880FA1
:10160000991F2A95E2F7852B8C93898D9A8D0E94DC
:101610008308CE010E948A08DF91CF911F910F911C
:10162000FF90EF900895ACE6B0E0ECE6F0E0D0CFAC
:10163000FC014485463150F5483028F04E3030F0FA
:10164000ECE6F0E005C0EDE6F0E002C0EBE6F0E02D
:101650005081483040F481E090E002C0880F991F2B
:101660004A95E2F710C0242F30E04E3018F428508D
:10167000304002C02E50304081E090E002C0880F20
:10168000991F2A95E2F780958523808308952EE29D
:1016900031E0FC01318320830E94180B08958330D0
:1016A00071F0843028F48130A1F0823021F514C02B
:1016B0008630B1F08730D1F08430E9F404C08091F5
:1016C00080008F7703C0809180008F7D80938000A1
:1016D000089584B58F7702C084B58F7D84BD089549
:1016E0008091B0008F778093B00008958091B00012
:1016F0008F7D8093B000089590E0FC01E65DFE4F81
:101700002491FC01EA5EFE4FE491EE23C1F0F0E08B
:10171000EE0FFF1FE850FF4F85919491DC01662387
:1017200041F49FB7F8948C91209582238C939FBFAE
:1017300008959FB7F8948C91822B8C939FBF089546
:101740000F931F93DF93CF930F92CDB7DEB7282F60
:1017500030E0F901E25CFE4F8491F901E65DFE4F55
:1017600014912A5E3E4FF90104910023D9F0882399
:1017700021F069830E944F0B6981E02FF0E0EE0FAA
:10178000FF1FEE5FFE4F85919491DC019FB7F894A7
:10179000662321F48C911095812302C08C91812BBA
:1017A0008C939FBF0F90CF91DF911F910F91089560
:1017B0000F931F93282F30E0F901E25CFE4F8491D4
:1017C000F901E65DFE4F04912A5E3E4FF901149146
:1017D000112391F0882311F00E944F0BE12FF0E0CC
:1017E000EE0FFF1FE45FFE4F85919491DC018C9119
:1017F000802321E030E011F420E030E0C9011F91A6
:101800000F910895FC01808191810E941417089521
:10181000CF93DF93EC0188819981009711F00E94AA
:101820001417198218821D821C821B821A82DF9172
:10183000CF9108950F931F93CF93DF93EC018B010A
:101840006F5F7F4F888199810E94AD17009731F0BB
:10185000998388831B830A8381E001C080E0DF9144
:10186000CF911F910F910895CF93DF93EC01888161
:101870009981009729F08A819B818617970778F4D0
:10188000CE010E941A0C882341F08C819D81009723
:1018900031F4E881F981108202C080E001C081E06A
:1018A000DF91CF910895EF92FF920F931F93CF9303
:1018B000DF93EC017B018A01BA010E94340C88237A
:1018C00021F4CE010E94080C07C01D830C8388817F
:1018D0009981B7010E94E618CE01DF91CF911F9147
:1018E0000F91FF90EF900895CF93DF93FC01118249
:1018F000108213821282158214821682611571057C
:1019000059F0EB0109900020E9F7AE014150504039
:10191000461B570B0E94530CDF91CF910895EF9215
:10192000FF92CF93DF93EC01FB018617970761F0DD
:10193000608171816115710529F0448155810E9492
:10194000530C02C00E94080CCE01DF91CF91FF9092
:10195000EF900895FC011182108213821282158289
:10196000148216820E948F0C08950F931F938C018E
:101970006115710561F0DB010D900020E9F7AD0103
:1019800041505040461B570B0E94530C02C00E940E
:10199000080CC8011F910F910895EF92FF920F93C9
:1019A0001F93DF93CF93CDB7DEB7A1970FB6F8940F
:1019B000DEBF0FBECDBF7C01CB01BA01F7011182A2
:1019C0001082138212821582148216828E010F5F9A
:1019D0001F4FA80130E00E949919C701B8010E9469
:1019E000B50CA1960FB6F894DEBF0FBECDBFCF9158
:1019F000DF911F910F91FF90EF900895EF92FF926A
:101A00000F931F93DF93CF93CDB7DEB7A2970FB697
:101A1000F894DEBF0FBECDBF7C01CB01BA01F70148
:101A200011821082138212821582148216828E0114
:101A30000F5F1F4FA80130E00E945019C701B80185
:101A40000E94B50CA2960FB6F894DEBF0FBECDBFB4
:101A5000CF91DF911F910F91FF90EF900895EF923A
:101A6000FF920F931F93DF93CF93CDB7DEB76197AC
:101A70000FB6F894DEBF0FBECDBF7C01CB01F701DE
:101A800011821082138212821582148216828E01B4
:101A90000F5F1F4FB80150E00E94BE19C701B80187
:101AA0000E94B50C61960FB6F894DEBF0FBECDBF95
:101AB000CF91DF911F910F91FF90EF900895EF92DA
:101AC000FF920F931F93DF93CF93CDB7DEB762974B
:101AD0000FB6F894DEBF0FBECDBF7C01CB01F7017E
:101AE00011821082138212821582148216828E0154
:101AF0000F5F1F4FB80150E00E942F19C701B801B6
:101B00000E94B50C62960FB6F894DEBF0FBECDBF33
:101B1000CF91DF911F910F91FF90EF900895EF9279
:101B2000FF920F931F93DF93CF93CDB7DEB7299723
:101B30000FB6F894DEBF0FBECDBF7C01862FF70134
:101B4000118210821382128215821482168290E012
:101B50008E010F5F1F4FB80150E00E94BE19C701F0
:101B6000B8010E94B50C29960FB6F894DEBF0FBEDF
:101B7000CDBFCF91DF911F910F91FF90EF9008950E
:101B8000DF93CF9300D0CDB7DEB7FC011182108276
:101B90001382128215821482168269831A82BE0110
:101BA0006F5F7F4F0E94B50C0F900F90CF91DF9128
:101BB0000895EF92FF920F931F93CF93DF93EC0161
:101BC0007B010C811D8161157105B9F0411551052D
:101BD00091F0040F151FB8010E94340C882369F09E
:101BE000288139818C819D81820F931FB7010E94CA
:101BF000E6181D830C8381E001C080E0DF91CF9166
:101C00001F910F91FF90EF900895FB01608171810A
:101C1000448155810E94D90D08956115710561F0C7
:101C2000DB010D900020E9F7AD0141505040461B0B
:101C3000570B0E94D90D089580E00895DF93CF934C
:101C400000D0CDB7DEB769831A82BE016F5F7F4FC8
:101C500041E050E00E94D90D0F900F90CF91DF919D
:101C60000895EF92FF920F931F93DF93CF9300D0CD
:101C700000D0CDB7DEB77C01862F90E08E010F5FDC
:101C80001F4FB8014AE050E00E942F19F80101905F
:101C90000020E9F7AF0141505040401B510BC701F4
:101CA000B8010E94D90D0F900F900F900F90CF9117
:101CB000DF911F910F91FF90EF900895EF92FF92A7
:101CC0000F931F93DF93CF93CDB7DEB727970FB650
:101CD000F894DEBF0FBECDBF7C01CB018E010F5F3C
:101CE0001F4FB8014AE050E00E942F19F8010190FF
:101CF0000020E9F7AF0141505040401B510BC70194
:101D0000B8010E94D90D27960FB6F894DEBF0FBE1A
:101D1000CDBFCF91DF911F910F91FF90EF9008956C
:101D2000EF92FF920F931F93DF93CF9300D000D0D9
:101D300000D0CDB7DEB77C01CB018E010F5F1F4F06
:101D4000B8014AE050E00E94BE19F801019000205D
:101D5000E9F7AF0141505040401B510BC701B8019A
:101D60000E94D90D26960FB6F894DEBF0FBECDBFE8
:101D7000CF91DF911F910F91FF90EF900895EF9217
:101D8000FF920F931F93DF93CF93CDB7DEB72C97BE
:101D90000FB6F894DEBF0FBECDBF7C01CB01BA01F8
:101DA0008E010F5F1F4FA8012AE030E00E945019FA
:101DB000F80101900020E9F7AF0141505040401B6D
:101DC000510BC701B8010E94D90D2C960FB6F8949B
:101DD000DEBF0FBECDBFCF91DF911F910F91FF905E
:101DE000EF900895EF92FF920F931F93DF93CF939D
:101DF000CDB7DEB72B970FB6F894DEBF0FBECDBFC1
:101E00007C01CB01BA018E010F5F1F4FA8012AE0B0
:101E100030E00E949919F80101900020E9F7AF0124
:101E200041505040401B510BC701B8010E94D90DD1
:101E30002B960FB6F894DEBF0FBECDBFCF91DF91CA
:101E40001F910F91FF90EF9008950F931F938C01B6
:101E5000FB0160817181448155810E94D90D8823E5
:101E600019F4C8010E94080CC8011F910F91089530
:101E70000F931F938C016115710569F0DB010D90C3
:101E80000020E9F7AD0141505040461B570B0E941E
:101E9000D90D882319F4C8010E94080CC8011F91AC
:101EA0000F9108950F931F938C010E941E0E88239B
:101EB00019F4C8010E94080CC8011F910F910895E0
:101EC0000F931F938C010E94310E882319F4C801CF
:101ED0000E94080CC8011F910F9108950F931F9342
:101EE0008C010E945E0E882319F4C8010E94080C20
:101EF000C8011F910F9108950F931F938C010E94A9
:101F0000900E882319F4C8010E94080CC8011F9183
:101F10000F9108950F931F938C010E94BF0E882389
:101F200019F4C8010E94080CC8011F910F9108956F
:101F30000F931F938C010E94F20E882319F4C8019D
:101F40000E94080CC8011F910F910895CF93DF9351
:101F5000FC01DB0180819181009731F06D917C91D2
:101F6000119761157105E9F4CD91DC9111972097D6
:101F700069F014962D913C9115972115310531F09A
:101F8000288130E0309521953F4F12C0009771F0C5
:101F9000248135812115310549F0FC01208130E093
:101FA00007C00E94DD18282F392F02C020E030E042
:101FB000C901DF91CF910895FC0144815581FB0156
:101FC000248135814217530729F40E94A60F21E08E
:101FD000009709F020E0822F0895FC01848195810B
:101FE000009741F46115710519F081E0FB0109C00A
:101FF00081E008950190F081E02D6115710531F4C3
:1020000081E09081992359F080E00895CF010E94EA
:10201000DD189C0181E02115310509F080E008956B
:102020000E94A60F892F881F8827881F08950E9465
:10203000A60F21E0181619060CF020E0822F089553
:102040000E94A60F21E0181619060CF420E0822F3A
:1020500008950E94A60F892F8095881F8827881FC2
:102060000895EF92FF920F931F93CF93DF93FC019C
:10207000DB018617970729F18481958114962D91AC
:102080003C91159782179307F1F40097D1F00081E6
:102090001181CD91DC9111970FC0992787FD909503
:1020A0000E94A7187C018991992787FD90950E942D
:1020B000A718E816F90639F4F80181918F018823F1
:1020C00061F781E001C080E0DF91CF911F910F9116
:1020D000FF90EF900895FC01DB01CA0114964D9129
:1020E0005C91159724813581241B350B28173907FE
:1020F000A0F0208131812115310579F06D917C911D
:1021000011976115710559F0820F931F0E94ED1808
:102110009C0181E02115310519F080E0089580E0EF
:102120000895FC0144815581FB01248135814217CA
:10213000530728F040E050E00E946B10089580E0C3
:102140000895FC01DB018481958114964D915C9189
:10215000159784179507B0F020813181211531053D
:1021600089F06D917C9111976115710569F0841B5F
:10217000950B820F931F0E94DD189C0181E02115B1
:10218000310519F080E0089580E00895FC01848114
:1021900095816817790730F40190F081E02DE60F02
:1021A000F71F40830895FC018481958168177907A2
:1021B00020F480819181009729F41092740264E7E1
:1021C00072E002C0680F791FCB010895FC01848181
:1021D00095816817790748F480819181009739F0DB
:1021E000680F791FFB018081089580E0089580E0E9
:1021F00008950E94E61008950F931F93CF93DF93E5
:10220000FC018B0141155105F1F061157105D9F003
:10221000C481D5812C173D0718F0FB01108213C033
:1022200041505040C21BD30B4C175D0708F4EA0124
:1022300060817181620F731FC801AE010E94FB189B
:10224000C00FD11F1882DF91CF911F910F91089578
:10225000CF93DF93FC01CA012481358142175307D4
:1022600078F4C081D181772767FD70958C0F9D1F11
:102270000E94D218009721F09C012C1B3D0B02C03C
:102280002FEF3FEFC901DF91CF91089540E050E07B
:102290000E9428110895CF93DF93FC01CA01248185
:1022A00035814217530778F4C081D181FB016081E9
:1022B00071818C0F9D1F0E941519009721F09C01C0
:1022C0002C1B3D0B02C02FEF3FEFC901DF91CF91D7
:1022D000089540E050E00E944B110895DF92EF9284
:1022E000FF920F931F93CF93DF93EC018C819D811D
:1022F00048175907F8F47A010894E11CF11CE881A9
:10230000F981EE0DFF1DD080108208811981772799
:1023100067FD7095C8010E940A190E0D1F1DF80176
:10232000D082009739F028813981AC01421B530BD0
:102330009A0102C02FEF3FEFC901DF91CF911F91AA
:102340000F91FF90EF90DF900895FC01448155813B
:10235000415050400E946E110895AF92BF92CF92AB
:10236000DF92EF92FF920F931F93CF93DF93FC01C5
:102370006B018A01DB0114962D913C911597211573
:10238000310551F184819581009731F182179307CE
:1023900018F14817590718F08C0101501040E080DF
:1023A000F180C701CFEFDFEF5701A00EB11E10C0C3
:1023B000F601608171810E941519009779F09C01E6
:1023C0002E193F090217130708F49E010196E9012F
:1023D000A816B90668F702C0CFEFDFEFCE01DF9194
:1023E000CF911F910F91FF90EF90DF90CF90BF9012
:1023F000AF900895FC0144815581FB012481358112
:10240000421B530B0E94AD110895AF92BF92CF9221
:10241000DF92EF92FF920F931F93CF93DF93F82EEB
:10242000E92E6B018A01E9012417350748F4342F9E
:10243000212F8E01C901A92EE5015E01B22EE50111
:102440008F2D9E2D6AE471E00E94740CD6011496C3
:102450008D919C91159780179107D8F08C179D0747
:1024600008F4EC01D601ED91FC911197EC0FFD1FE2
:10247000B08010826D917C91600F711F8F2D9E2D09
:102480000E94B50CD601ED91FC911197EC0FFD1F48
:10249000B0828F2D9E2DDF91CF911F910F91FF90D4
:1024A000EF90DF90CF90BF90AF900895CF93DF93E0
:1024B000EC01FB01248135810E940512CE01DF91E0
:1024C000CF910895DC01ED91FC911197309729F49B
:1024D0000895861709F44083319680818823C9F7CF
:1024E00008952F923F924F925F926F927F928F92B8
:1024F0009F92AF92BF92CF92DF92EF92FF920F9393
:102500001F93CF93DF937C012B016A01DC011496AA
:102510006D907C9015976114710409F4D9C0FB018A
:10252000848095808114910409F4D2C0DA01149654
:10253000AD90BC901597A818B908FC0100811181D5
:10254000A114B104F1F413C0D6016C9111967C91E1
:10255000119714964D915C911597CE010E94B71872
:10256000D60114960D911C9115970C0F1D1FF201A9
:1025700060817181C8010E941519EC01009721F753
:10258000A7C0B7FC02C0E30142C048012DC0E3016F
:10259000C01BD10BC401B801AE010E94B718C80D11
:1025A000D91DD6016C9111967C91119714964D917D
:1025B0005C911597CE010E94B718D60114968D90A4
:1025C0009C9015978C0E9D1EF20104811581060DBD
:1025D000171DD70114968D919C9115978A0D9B1DFF
:1025E00015969C938E931497F20160817181C801B6
:1025F0000E9415193C01009751F6C401B8010E94D0
:10260000E61866C08C01080D191DCA0DDB1DD2012C
:102610006D917C91C8010E941519009799F7C61514
:10262000D70509F455C0F701828193818C179D0766
:1026300008F045C0C701BE010E941A0C882309F4A6
:1026400047C03DC0C701B201A9010E94AD11EC0114
:1026500097FD3EC0D7016D917C911197F201848165
:1026600095818C0F9D1F680F791F14964D915C9179
:102670001597481B590BCB018A0D9B1D0E94C01852
:10268000D70114968D919C9115978A0D9B1D1596D7
:102690009C938E931497ED91FC911197E80FF91F7D
:1026A00010822D913C912C0F3D1FF60160817181AC
:1026B00044815581C9010E94B7189E0105C0D70108
:1026C00014962D913C9115972150304037FFBACF89
:1026D000DF91CF911F910F91FF90EF90DF90CF90FE
:1026E000BF90AF909F908F907F906F905F904F9032
:1026F0003F902F900895CF93DF93FC01C081D1814B
:10270000209739F409C0992787FD90950E94A71852
:10271000899388818823B9F7DF91CF910895CF936A
:10272000DF93FC01C081D181209739F409C099273A
:1027300087FD90950E94AF18899388818823B9F707
:10274000DF91CF910895AF92BF92CF92DF92EF9237
:10275000FF920F931F93CF93DF936C01DC01ED90F9
:10276000FC901197E114F10409F443C01496AD9064
:10277000BC901597A114B104E1F18701E8018881AB
:102780000F5F1F4F992787FD90950E949F18009714
:10279000A9F78501015010400E0D1F1DF801808121
:1027A000992787FD90950E949F18009731F00C178C
:1027B0001D0718F001501040F1CF0F5F1F4F0C1B89
:1027C0001D0BD60115961C930E931497EC16FD065F
:1027D00028F4C701BE01A8010E94B718D601ED91E7
:1027E000FC91119714968D919C911597E80FF91F04
:1027F0001082DF91CF911F910F91FF90EF90DF90AA
:10280000CF90BF90AF900895FC0180819181009797
:1028100029F00E9478189B01AC0103C020E030E051
:10282000A901B901CA0108955058BB27AA270ED0A3
:1028300075C166D130F06BD120F031F49F3F11F4B7
:102840001EF45BC10EF4E095E7FB51C1E92F77D18F
:1028500080F3BA17620773078407950718F071F4BD
:102860009EF58FC10EF4E0950B2EBA2FA02D0B0113
:10287000B90190010C01CA01A0011124FF27591BC5
:1028800099F0593F50F4503E68F11A16F040A22FCB
:10289000232F342F4427585FF3CF4695379527953C
:1028A000A795F0405395C9F77EF41F16BA0B620B3B
:1028B000730B840BBAF09150A1F0FF0FBB1F661F82
:1028C000771F881FC2F70EC0BA0F621F731F841FC5
:1028D00048F4879577956795B795F7959E3F08F0EB
:1028E000B3CF9395880F08F09927EE0F97958795AA
:1028F0000895D9D008F481E008950CD00FC107D114
:1029000040F0FED030F021F45F3F19F0F0C05111DB
:1029100039C1F3C014D198F39923C9F35523B1F306
:10292000951B550BBB27AA2762177307840738F03E
:102930009F5F5F4F220F331F441FAA1FA9F333D09D
:102940000E2E3AF0E0E830D091505040E695001C51
:10295000CAF729D0FE2F27D0660F771F881FBB1F0D
:10296000261737074807AB07B0E809F0BB0B802DE7
:10297000BF01FF2793585F4F2AF09E3F510568F033
:10298000B6C000C15F3FECF3983EDCF386957795C7
:102990006795B795F7959F5FC9F7880F911D969535
:1029A000879597F90895E1E0660F771F881FBB1F91
:1029B000621773078407BA0720F0621B730B840B3E
:1029C000BA0BEE1F88F7E095089504D06894B11112
:1029D000D9C00895BCD088F09F5790F0B92F99279F
:1029E000B751A0F0D1F0660F771F881F991F1AF01A
:1029F000BA95C9F712C0B13081F0C3D0B1E00895E3
:102A0000C0C0672F782F8827B85F39F0B93FCCF363
:102A1000869577956795B395D9F73EF4909580950F
:102A2000709561957F4F8F4F9F4F0895E89409C02F
:102A300097FB3EF490958095709561957F4F8F4FF1
:102A40009F4F9923A9F0F92F96E9BB279395F69507
:102A5000879577956795B795F111F8CFFAF4BB0F85
:102A600011F460FF1BC06F5F7F4F8F4F9F4F16C0E9
:102A7000882311F096E911C0772321F09EE8872F73
:102A8000762F05C0662371F096E8862F70E060E02F
:102A90002AF09A95660F771F881FDAF7880F9695A8
:102AA000879597F90895990F0008550FAA0BE0E84C
:102AB000FEEF16161706E807F907C0F01216130600
:102AC000E407F50798F0621B730B840B950B39F440
:102AD0000A2661F0232B242B252B21F408950A26A6
:102AE00009F4A140A6958FEF811D811D089597F9E6
:102AF0009F6780E870E060E008959FEF80EC0895A4
:102B000000240A94161617061806090608950024CC
:102B10000A9412161306140605060895092E039446
:102B2000000C11F4882352F0BB0F40F4BF2B11F4BA
:102B300060FF04C06F5F7F4F8F4F9F4F089557FD19
:102B40009058440F551F59F05F3F71F04795880F1B
:102B500097FB991F61F09F3F79F0879508951216B2
:102B600013061406551FF2CF4695F1DF08C016165E
:102B700017061806991FF1CF86957105610508940F
:102B80000895E894BB2766277727CB0197F9089526
:102B90000BD0C4CFB5DF28F0BADF18F0952309F0C9
:102BA000A6CFABCF1124EECFCADFA0F3959FD1F310
:102BB000950F50E0551F629FF001729FBB27F00DEB
:102BC000B11D639FAA27F00DB11DAA1F649F662740
:102BD000B00DA11D661F829F2227B00DA11D621F8F
:102BE000739FB00DA11D621F839FA00D611D221F49
:102BF000749F3327A00D611D231F849F600D211D2D
:102C0000822F762F6A2F11249F5750408AF0E1F0CF
:102C100088234AF0EE0FFF1FBB1F661F771F881F18
:102C200091505040A9F79E3F510570F060CFAACF58
:102C30005F3FECF3983EDCF3869577956795B79503
:102C4000F795E7959F5FC1F7FE2B880F911D96952D
:102C5000879597F9089597FB092E07260AD077FDE7
:102C600004D02ED006D000201AF4709561957F4FC5
:102C70000895F6F7909581959F4F0895A1E21A2E39
:102C8000AA1BBB1BFD010DC0AA1FBB1FEE1FFF1F10
:102C9000A217B307E407F50720F0A21BB30BE40B60
:102CA000F50B661F771F881F991F1A9469F76095A7
:102CB0007095809590959B01AC01BD01CF01089561
:102CC000AA1BBB1B51E107C0AA1FBB1FA617B70752
:102CD00010F0A61BB70B881F991F5A95A9F780956E
:102CE0009095BC01CD010895EE0FFF1F0590F49162
:102CF000E02D0994CF93DF938230910510F482E0A8
:102D000090E0E0917702F091780240E050E020E01E
:102D100030E026C06081718168177907E0F068179C
:102D2000790781F4828193812115310531F0D90130
:102D300013969C938E9312972BC090937802809356
:102D4000770226C04115510519F06417750718F46C
:102D5000AB01E901DF019F0172816381E72FF62F4B
:102D60003097C1F64115510501F1481B590B44300C
:102D7000510580F412968D919C911397209719F02C
:102D80009B838A8304C09093780280937702FD012D
:102D9000329646C0FD01E40FF51F81939193425096
:102DA000504011965C934E933BC020917502309138
:102DB00076022115310541F420914D0130914E01EB
:102DC000309376022093750220914F01309150018B
:102DD0002115310541F42DB73EB740914B0150917B
:102DE0004C01241B350BE0917502F0917602E2173D
:102DF000F307A0F42E1B3F0B2817390778F0AC011E
:102E00004E5F5F4F2417350748F04E0F5F1F5093FA
:102E10007602409375028193919302C0E0E0F0E066
:102E2000CF01DF91CF910895CF93DF93009709F4FD
:102E300091C0FC01329713821282609177027091E7
:102E400078026115710581F420813181280F391FC5
:102E500080917502909176028217930799F5F0930D
:102E60007602E093750276C0DB0180E090E002C05C
:102E7000CD01D901AE17BF0748F412962D913C91B0
:102E8000139721153105A1F7CD0121C0B383A2838A
:102E9000EF01499159919E01240F351FA217B307E5
:102EA00079F42D913C911197240F351F2E5F3F4FE0
:102EB0003183208312962D913C9113973383228383
:102EC000009729F4F0937802E093770243C0DC0185
:102ED0001396FC93EE9312974D915D91A40FB51F3D
:102EE000EA17FB0769F420813181240F351F2E5F1B
:102EF0003F4FEC0139832883228133813B832A832E
:102F0000E0E0F0E002C0FB01BC01DB0112968D9114
:102F10009C9113970097B9F79B012E5F3F4F8D91BE
:102F20009C911197820F931F4091750250917602E8
:102F30004817590779F4309729F4109278021092C3
:102F4000770202C013821282225030403093760200
:102F500020937502DF91CF910895A0E0B0E0E3EBFC
:102F6000F7E10C94ED198C01CB010115110529F441
:102F70000E947A16082F192FB5C0D8011297980110
:102F8000260F371F2A173B0708F4AAC0ED90FC90C4
:102F90001197E616F706D0F045E0E416F10408F4C0
:102FA000A1C0A701445050404617570708F49AC0E3
:102FB000A70142505040461B570BF90141935193D2
:102FC0006D937C93CF010E9414178CC05B01AE18E7
:102FD000BF0848018E0C9F1CE0917702F0917802A7
:102FE000CC24DD24C0E0D0E041C0E815F90599F516
:102FF00060817181AB014E5F5F4F4A155B0558F1EF
:10300000AB014A195B09CC24DD246894C1F8C40ED5
:10301000D51E8280A380E5E0CE16D10448F0F901E8
:103020008282A3825183408311969C938E9309C020
:10303000C7010296860F971F11969C938E93E82DD9
:10304000FA2D209719F0FB83EA834CC0F0937802A5
:10305000E093770247C040815181C416D50608F439
:103060006A01EF0152814381E52FF42F309709F077
:10307000BCCF409175025091760248155905E9F48C
:10308000C816D906D0F440914F0150915001411516
:10309000510541F44DB75EB760914B0170914C0101
:1030A000461B570B24173507D8F43093760220932C
:1030B000750211969C938E9315C00E947A16C82EA5
:1030C000E6016E01D92EE601209751F08C2DB80152
:1030D000A7010E94B718C8010E941417860102C0F8
:1030E00000E010E0C801CDB7DEB7ECE00C94091A9F
:1030F0001F93FC0199278827BC01E8941191103295
:10310000E9F3193010F01E30C8F31B3251F01D32B4
:1031100049F4689406C00E948419610F711D811DD5
:10312000911D119110531A30B0F33EF49095809593
:10313000709561957F4F8F4F9F4F1F91089591110B
:1031400033C1803219F089508550D0F7089591111C
:10315000089581548A5108F4805E855A089591112A
:10316000089581568A5108F4805285580895FB01CC
:10317000DC0102C001900D9241505040D8F70895F3
:103180006817790768F4FB01DC01E40FF51FA40F51
:10319000B51F02C002900E9241505040D8F70895DA
:1031A0000C94B718FC018191861721F08823D9F778
:1031B000992708953197CF010895FB01DC018D9186
:1031C000019080190110D9F3990B0895FB01DC01DE
:1031D00001900D920020E1F70895FB01DC014150C0
:1031E000504030F08D910190801919F40020B9F70A
:1031F000881B990B0895FB01DC014150504048F0B9
:1032000001900D920020C9F701C01D92415050401D
:10321000E0F70895FC0181E090E00190061609F4C2
:10322000CF010020D1F701970895FB01519155235B
:10323000A9F0BF01DC014D9145174111E1F759F4A7
:10324000CD010190002049F04D9140154111C9F385
:10325000FB014111EFCF81E090E001970895FB0160
:103260009F01E8944230C4F04532B4F44A3029F466
:1032700097FB1EF4909581959F4F642F77270E94AE
:103280006016805D8A330CF0895D8193CB010097D5
:10329000A1F716F45DE251931082C9010C94D7197D
:1032A000FA01CF93FF93EF93223044F1253234F5A6
:1032B000C22FE894CA3049F497FB3EF4909580956C
:1032C000709561957F4F8F4F9F4F2C2F3327442749
:1032D0005527FF93EF930E943E16EF91FF91605D9B
:1032E0006A330CF0695D6193B901CA0160507040A6
:1032F0008040904051F716F4CDE2C19310828F9137
:103300009F91CF910C94D719592F482F372F262FE3
:10331000660F771F881F991F660F771F881F991FD9
:10332000620F731F841F951F660F771F881F991FD9
:103330000895FA01CF93FF93EF932230CCF025321A
:10334000BCF4C22F2C2F332744275527FF93EF932C
:103350000E943E16EF91FF91605D6A330CF0695D4B
:103360006193B901CA01605070408040904051F7AC
:1033700010828F919F91CF910C94D719FB019F01DF
:10338000423074F0453264F4642F77270E9460164F
:10339000805D8A330CF0895D8193CB010097A1F7A2
:1033A0001082C9010C94D719992788270895DC0148
:1033B000FC01672F71917723E1F7329704C07C916C
:1033C0006D9370836291AE17BF07C8F308952F9273
:1033D0003F924F925F926F927F928F929F92AF92A5
:1033E000BF92CF92DF92EF92FF920F931F93CF93F2
:1033F000DF93CDB7DEB7CA1BDB0B0FB6F894DEBF89
:103400000FBECDBF09942A88398848885F846E84AE
:103410007D848C849B84AA84B984C884DF80EE80F8
:10342000FD800C811B81AA81B981CE0FD11D0FB601
:10343000F894DEBF0FBECDBFED01089511E0C6E5E3
:10344000D1E004C0FE010E9476162296C835D1074D
:06345000C9F7F894FFCF5C
:1034560000000000EB0208058602B5029902D702B9
:1034660000000000840108058401840184018401B0
:103476002E0000000000840108050000000012096B
:1034860008053D081C08680857080000000084016C
:10349600080584018401840184010020007902006A
:0234A600000024
:00000001FF
